:10057600D3EF9400EE940040147D6E7C00ED1D7068
:0D058600011CED4C70F7EF1F70E61E80E3C6
:010593002245
:10059400EF1FAA0670011E4A60107C137D88ED1DB2
:0A05A400AA0470011C4A60E880F40C
:0105AE00222A
:07000300696E69740D0A002B
:0404F00002180000EE
:1005AF001205E312063512000E12067A7BFF7A004F
:0A05BF0079031205371204C880FB0F
:1004C80012000AAE18AF197C037DE81200A0ED4CAB
:1004D800700312066EAE18AF197C007DC81200A01A
:0804E800ED4C70031206112215
:10000E00438E805389F0758ACD758CD4C28DD28C77
:05001E00D2A9D2AF22BF
:03000B00020407E5
:10040700C0E0C0F0C0D075D010E5192401FFE43575
:1004170018FE7C0B7DB81200A08C188D19AE18AF92
:10042700197C037DE81200A0ED4C7002B2CCD0D04D
:05043700D0F0D0E0321E
:050675003443101001E8
:10055700E4FEEF30E704D2B58002C2B5EF25E0FF35
:0E056700D2B430B603430701C2B40EBE08E49E
:010575002263
:100635007F647E00120576C2B2D2B3C2B4D2B722AD
:0C065400C2B3120557E4FF120557D2B3E1
:010660002277
:0905C9007D017F211205D27F2281
:1005D200C2B3120557AC07AF05120557D2B3AF0429
:0105E20022F6
:06043C008B098A0A890BFE
:10044200C2B3120557AD07E4FCECC3950C5017E498
:10045200FF120557AB09AA0AA90B8C82758300EF1C
:0A04620012007E0C80E3D2B3AF0558
:01046C00226D
:0B03CA007BFF7A0679757545057F2AD8
:0603D5008B428A438944BB
:1003DB00C2B3120557AD07E4FCECC395455018ABFF
:1003EB00420544E544AA437002054314F912002662
:0B03FB00FF1205570C80E2D2B3AF05E3
:0104060022D3
:10037B008B3E8A3F8940C2B27BFF7A067975754501
:10038B00057F301203D51203CAAB3EAA3FA94075B5
:10039B0045047FA01203D51205C97D0A7F241205DF
:1003AB00D27D407F251205D27D077F261205D27D97
:0F03BB000E7F201205D2D2B27F647E000205763B
:10049B00C2B21203CA1205C97D407F251205D27D57
:1004AB00047F311205D27D077F261205D27D0F7F87
:0D04BB00201205D2D2B27F647E00020576C9
:100514007F071206548F202005033004137DFF7FCC
:10052400271205D2C2B37FE1120557D2B37F00224E
:030534007F012222
:06046D008B0D8A0E890FC1
:10047300E4FB7F071206548F20300612C2B2AB0D85
:10048300AA0EA90F750C047F6112043C7B017DFF4A
:070493007F271205D2AF0321
:01049A00223F
:01000A0022D3
:07066E00AF37AE3602032294
:10061100753C00753D00753E387B007A00792202F9
:0206210001F3E3
:0204F400C1083D
:1005E300E5A2543FF5A27598DA75D7E875D6FF757D
:0A05F3008E14438E01D2ACD2AF2269
:0300230002066171
:0D066100309802C298309904C299C2083244
:100623002008FDEF30D004D29B8002C29BD208F594
:0206330099220A
:060537008B3E8A3F894063
:10053D00E4FEAB3EAA3FA9408E8275830012003FB8
:09054D00FF60061206230E80E98E
:010556002282
:1004F6000236000014220000000000000000000088
:0D05060000000000000000000000013800AF
:0F064500759DFFE4F5BD75BC807F02FE02059434
:03067A0002064530
:1005FD00EF4488F5BC00000000E5BC30E4FB53BCC3
:04060D00EFAFBD226C
:04032200AB07AA0675
:100326007539327C007D641200F5EF2430F53A7C95
:10033600007D64AF03AE021200F57E007F0ACFCDCA
:10034600CFCECCCE1200F5EF2430F53BAE02AF0394
:100356007C007D0A1200F5ED2430F53C7B007A0026
:1003660079391205377B007A00793912037B120539
:0403760014EF70FA16
:01037A002260
:0601F3008B398A3A893BBA
:1001F900E4FD900012F5F01201B07F021205FDEF47
:1002090075F00A84FDAB3CAA3DA93E120026FF33D6
:1002190095E0FEEF25E0FFEE33AB39AA3AA93B8F13
:1002290082F583E48DF01201B0E4FDEDFF3395E032
:10023900FEEF25E0FFEE33AB39AA3AA93B8F82F5F1
:100249008312012BFF900012E5F08FF01201630D6C
:10025900BD09D8AB39AA3AA93B90001212012BFF6C
:10026900AEF07C007D191200F58E368F37AB3CAAB3
:100279003DA93E120026FF3395E0FEEF2401FFE47D
:0D0289003EFE7C007D0A1200F5ED02006CC7
:0300000002029663
:0C029600787FE4F6D8FD7581450202DD9A
:10002600BB010689828A83E0225002E722BBFE02D8
:09003600E32289828A83E493220B
:10003F00BB010CE58229F582E5833AF583E0225076
:10004F0006E92582F8E622BBFE06E92582F8E222C0
:0D005F00E58229F582E5833AF583E49322DA
:10006C00BB010689828A83F0225002F722BBFE0173
:02007C00F3226D
:10007E00F8BB010DE58229F582E5833AF583E8F0B8
:10008E00225006E92582C8F622BBFE05E92582C864
:02009E00F2224C
:1000A000BC000BBE0029EF8DF084FFADF022E4CC44
:1000B000F875F008EF2FFFEE33FEEC33FCEE9DEC0D
:1000C000984005FCEE9DFE0FD5F0E9E4CEFD22ED53
:1000D000F8F5F0EE8420D21CFEADF075F008EF2F9D
:1000E000FFED33FD4007985006D5F0F222C398FD8E
:0500F0000FD5F0EA222B
:1000F500C2D5EC30E709B2D5E4C39DFDE49CFCEE26
:1001050030E715B2D5E4C39FFFE49EFE1200A0C3FD
:10011500E49DFDE49CFC80031200A030D507C3E4F8
:060125009FFFE49EFE2294
:10012B00BB0110E58229F582E5833AF583E0F5F012
:10013B00A3E0225009E92582F886F008E622BBFEEF
:10014B000AE92582F8E2F5F008E222E5832AF58335
:08015B00E993F5F0A3E99322FA
:10016300BB010DC58229C582C5833AC5830201DD62
:100173005011C58229F808E5F026F618F5F0E58256
:1001830036F622BBFE11C58229F808E225F0F5F008
:10019300F218E23582F222F8E58229F582E5832A14
:0D01A300F58374019325F0F5F0E493382204
:1001B000F8BB0111E58229F582E5833AF583E8F081
:1001C000E5F0A3F0225009E92582C8F608A6F0223E
:0D01D000BBFE09E92582C8F2E5F008F22225
:1002A2000205AFE493A3F8E493A34003F68001F2BE
:1002B20008DFF48029E493A3F85407240CC8C3335D
:1002C200C4540F4420C8834004F456800146F6DF2C
:1002D200E4800B01020408102040809004F0E47EC8
:1002E200019360BCA3FF543F30E509541FFEE49321
:1002F200A360010ECF54C025E060A840B8E493A3E8
:10030200FAE493A3F8E493A3C8C582C8CAC583CA12
:10031200F0A3C8C582C8CAC583CADFE9DEE780BECA
:0105130000E7
:1001DD00C5F0F8A3E028F0C5F0F8E58215827002AD
:0601ED001583E038F0224A
:00000001FF
